{
  "contractName": "ExpenseManagerContract",
  "abi": [
    {
      "inputs": [],
      "stateMutability": "nonpayable",
      "type": "constructor"
    },
    {
      "anonymous": false,
      "inputs": [
        {
          "indexed": true,
          "internalType": "address",
          "name": "_from",
          "type": "address"
        },
        {
          "indexed": false,
          "internalType": "uint256",
          "name": "_amount",
          "type": "uint256"
        },
        {
          "indexed": false,
          "internalType": "string",
          "name": "_reason",
          "type": "string"
        },
        {
          "indexed": false,
          "internalType": "uint256",
          "name": "_timestamp",
          "type": "uint256"
        }
      ],
      "name": "Deposit",
      "type": "event"
    },
    {
      "anonymous": false,
      "inputs": [
        {
          "indexed": true,
          "internalType": "address",
          "name": "_to",
          "type": "address"
        },
        {
          "indexed": false,
          "internalType": "uint256",
          "name": "_amount",
          "type": "uint256"
        },
        {
          "indexed": false,
          "internalType": "string",
          "name": "_reason",
          "type": "string"
        },
        {
          "indexed": false,
          "internalType": "uint256",
          "name": "_timestamp",
          "type": "uint256"
        }
      ],
      "name": "Withdraw",
      "type": "event"
    },
    {
      "inputs": [
        {
          "internalType": "address",
          "name": "",
          "type": "address"
        }
      ],
      "name": "balances",
      "outputs": [
        {
          "internalType": "uint256",
          "name": "",
          "type": "uint256"
        }
      ],
      "stateMutability": "view",
      "type": "function"
    },
    {
      "inputs": [],
      "name": "owner",
      "outputs": [
        {
          "internalType": "address",
          "name": "",
          "type": "address"
        }
      ],
      "stateMutability": "view",
      "type": "function"
    },
    {
      "inputs": [
        {
          "internalType": "uint256",
          "name": "",
          "type": "uint256"
        }
      ],
      "name": "transactions",
      "outputs": [
        {
          "internalType": "address",
          "name": "user",
          "type": "address"
        },
        {
          "internalType": "uint256",
          "name": "amount",
          "type": "uint256"
        },
        {
          "internalType": "string",
          "name": "reason",
          "type": "string"
        },
        {
          "internalType": "uint256",
          "name": "timestamp",
          "type": "uint256"
        }
      ],
      "stateMutability": "view",
      "type": "function"
    },
    {
      "inputs": [
        {
          "internalType": "uint256",
          "name": "_amount",
          "type": "uint256"
        },
        {
          "internalType": "string",
          "name": "_reason",
          "type": "string"
        }
      ],
      "name": "deposit",
      "outputs": [],
      "stateMutability": "payable",
      "type": "function"
    },
    {
      "inputs": [
        {
          "internalType": "uint256",
          "name": "_amount",
          "type": "uint256"
        },
        {
          "internalType": "string",
          "name": "_reason",
          "type": "string"
        }
      ],
      "name": "withdraw",
      "outputs": [],
      "stateMutability": "nonpayable",
      "type": "function"
    },
    {
      "inputs": [
        {
          "internalType": "address",
          "name": "_account",
          "type": "address"
        }
      ],
      "name": "getBalance",
      "outputs": [
        {
          "internalType": "uint256",
          "name": "",
          "type": "uint256"
        }
      ],
      "stateMutability": "view",
      "type": "function"
    },
    {
      "inputs": [
        {
          "internalType": "uint256",
          "name": "",
          "type": "uint256"
        }
      ],
      "name": "getTranscationsCount",
      "outputs": [
        {
          "internalType": "uint256",
          "name": "",
          "type": "uint256"
        }
      ],
      "stateMutability": "view",
      "type": "function"
    },
    {
      "inputs": [
        {
          "internalType": "uint256",
          "name": "_index",
          "type": "uint256"
        }
      ],
      "name": "getTransaction",
      "outputs": [
        {
          "internalType": "address",
          "name": "",
          "type": "address"
        },
        {
          "internalType": "uint256",
          "name": "",
          "type": "uint256"
        },
        {
          "internalType": "string",
          "name": "",
          "type": "string"
        },
        {
          "internalType": "uint256",
          "name": "",
          "type": "uint256"
        }
      ],
      "stateMutability": "view",
      "type": "function"
    },
    {
      "inputs": [],
      "name": "getAllTransaction",
      "outputs": [
        {
          "internalType": "address[]",
          "name": "",
          "type": "address[]"
        },
        {
          "internalType": "uint256[]",
          "name": "",
          "type": "uint256[]"
        },
        {
          "internalType": "string[]",
          "name": "",
          "type": "string[]"
        },
        {
          "internalType": "uint256[]",
          "name": "",
          "type": "uint256[]"
        }
      ],
      "stateMutability": "view",
      "type": "function"
    },
    {
      "inputs": [
        {
          "internalType": "address",
          "name": "_newOwner",
          "type": "address"
        }
      ],
      "name": "changeOwner",
      "outputs": [],
      "stateMutability": "nonpayable",
      "type": "function"
    }
  ],
  "bytecode": "0x608060405234801561001057600080fd5b50336000806101000a81548173ffffffffffffffffffffffffffffffffffffffff021916908373ffffffffffffffffffffffffffffffffffffffff160217905550611ae6806100606000396000f3fe6080604052600436106100915760003560e01c8063a6f9dae111610059578063a6f9dae1146101bb578063add6415d146101e4578063dc048cf214610212578063f1215d251461023b578063f8b2cb4f1461025757610091565b806327e235e31461009657806333ea3dc8146100d35780635b1c7b8c146101135780638da5cb5b146101505780639ace38c21461017b575b600080fd5b3480156100a257600080fd5b506100bd60048036038101906100b89190610e76565b610294565b6040516100ca9190610ebc565b60405180910390f35b3480156100df57600080fd5b506100fa60048036038101906100f59190610f03565b6102ac565b60405161010a9493929190610fcf565b60405180910390f35b34801561011f57600080fd5b5061013a60048036038101906101359190610f03565b61044b565b6040516101479190610ebc565b60405180910390f35b34801561015c57600080fd5b5061016561045a565b604051610172919061101b565b60405180910390f35b34801561018757600080fd5b506101a2600480360381019061019d9190610f03565b61047e565b6040516101b29493929190610fcf565b60405180910390f35b3480156101c757600080fd5b506101e260048036038101906101dd9190610e76565b610566565b005b3480156101f057600080fd5b506101f9610637565b60405161020994939291906112be565b60405180910390f35b34801561021e57600080fd5b5061023960048036038101906102349190611454565b6109ad565b005b61025560048036038101906102509190611454565b610bf7565b005b34801561026357600080fd5b5061027e60048036038101906102799190610e76565b610dbb565b60405161028b9190610ebc565b60405180910390f35b60026020528060005260406000206000915090505481565b6000806060600060018054905085106102fa576040517f08c379a00000000000000000000000000000000000000000000000000000000081526004016102f1906114fc565b60405180910390fd5b6000600186815481106103105761030f61151c565b5b90600052602060002090600402016040518060800160405290816000820160009054906101000a900473ffffffffffffffffffffffffffffffffffffffff1673ffffffffffffffffffffffffffffffffffffffff1673ffffffffffffffffffffffffffffffffffffffff168152602001600182015481526020016002820180546103999061157a565b80601f01602080910402602001604051908101604052809291908181526020018280546103c59061157a565b80156104125780601f106103e757610100808354040283529160200191610412565b820191906000526020600020905b8154815290600101906020018083116103f557829003601f168201915b50505050508152602001600382015481525050905080600001518160200151826040015183606001519450945094509450509193509193565b60006001805490509050919050565b60008054906101000a900473ffffffffffffffffffffffffffffffffffffffff1681565b6001818154811061048e57600080fd5b90600052602060002090600402016000915090508060000160009054906101000a900473ffffffffffffffffffffffffffffffffffffffff16908060010154908060020180546104dd9061157a565b80601f01602080910402602001604051908101604052809291908181526020018280546105099061157a565b80156105565780601f1061052b57610100808354040283529160200191610556565b820191906000526020600020905b81548152906001019060200180831161053957829003601f168201915b5050505050908060030154905084565b60008054906101000a900473ffffffffffffffffffffffffffffffffffffffff1673ffffffffffffffffffffffffffffffffffffffff163373ffffffffffffffffffffffffffffffffffffffff16146105f4576040517f08c379a00000000000000000000000000000000000000000000000000000000081526004016105eb906115f7565b60405180910390fd5b806000806101000a81548173ffffffffffffffffffffffffffffffffffffffff021916908373ffffffffffffffffffffffffffffffffffffffff16021790555050565b606080606080600060018054905067ffffffffffffffff81111561065e5761065d611329565b5b60405190808252806020026020018201604052801561068c5781602001602082028036833780820191505090505b509050600060018054905067ffffffffffffffff8111156106b0576106af611329565b5b6040519080825280602002602001820160405280156106de5781602001602082028036833780820191505090505b509050600060018054905067ffffffffffffffff81111561070257610701611329565b5b60405190808252806020026020018201604052801561073557816020015b60608152602001906001900390816107205790505b509050600060018054905067ffffffffffffffff81111561075957610758611329565b5b6040519080825280602002602001820160405280156107875781602001602082028036833780820191505090505b50905060005b60018054905081101561099657600181815481106107ae576107ad61151c565b5b906000526020600020906004020160000160009054906101000a900473ffffffffffffffffffffffffffffffffffffffff168582815181106107f3576107f261151c565b5b602002602001019073ffffffffffffffffffffffffffffffffffffffff16908173ffffffffffffffffffffffffffffffffffffffff1681525050600181815481106108415761084061151c565b5b9060005260206000209060040201600101548482815181106108665761086561151c565b5b602002602001018181525050600181815481106108865761088561151c565b5b906000526020600020906004020160020180546108a29061157a565b80601f01602080910402602001604051908101604052809291908181526020018280546108ce9061157a565b801561091b5780601f106108f05761010080835404028352916020019161091b565b820191906000526020600020905b8154815290600101906020018083116108fe57829003601f168201915b50505050508382815181106109335761093261151c565b5b6020026020010181905250600181815481106109525761095161151c565b5b9060005260206000209060040201600301548282815181106109775761097661151c565b5b602002602001018181525050808061098e90611646565b91505061078d565b508383838397509750975097505050505090919293565b81600260003373ffffffffffffffffffffffffffffffffffffffff1673ffffffffffffffffffffffffffffffffffffffff168152602001908152602001600020541015610a2f576040517f08c379a0000000000000000000000000000000000000000000000000000000008152600401610a26906116da565b60405180910390fd5b81600260003373ffffffffffffffffffffffffffffffffffffffff1673ffffffffffffffffffffffffffffffffffffffff1681526020019081526020016000206000828254610a7e91906116fa565b92505081905550600160405180608001604052803373ffffffffffffffffffffffffffffffffffffffff16815260200184815260200183815260200142815250908060018154018082558091505060019003906000526020600020906004020160009091909190915060008201518160000160006101000a81548173ffffffffffffffffffffffffffffffffffffffff021916908373ffffffffffffffffffffffffffffffffffffffff160217905550602082015181600101556040820151816002019081610b4d91906118da565b506060820151816003015550503373ffffffffffffffffffffffffffffffffffffffff166108fc839081150290604051600060405180830381858888f19350505050158015610ba0573d6000803e3d6000fd5b503373ffffffffffffffffffffffffffffffffffffffff167f9a0048b724709102eb1a35f31b8f72c754c9f7a0490bfaa8d3e5edc3a8133da4838342604051610beb939291906119ac565b60405180910390a25050565b60008211610c3a576040517f08c379a0000000000000000000000000000000000000000000000000000000008152600401610c3190611a5c565b60405180910390fd5b81600260003373ffffffffffffffffffffffffffffffffffffffff1673ffffffffffffffffffffffffffffffffffffffff1681526020019081526020016000206000828254610c899190611a7c565b92505081905550600160405180608001604052803373ffffffffffffffffffffffffffffffffffffffff16815260200184815260200183815260200142815250908060018154018082558091505060019003906000526020600020906004020160009091909190915060008201518160000160006101000a81548173ffffffffffffffffffffffffffffffffffffffff021916908373ffffffffffffffffffffffffffffffffffffffff160217905550602082015181600101556040820151816002019081610d5891906118da565b506060820151816003015550503373ffffffffffffffffffffffffffffffffffffffff167f6314311867196e2cc4664d73a351321ff78ae80b0220bcfbce2b464fd6fb86cb838342604051610daf939291906119ac565b60405180910390a25050565b6000600260008373ffffffffffffffffffffffffffffffffffffffff1673ffffffffffffffffffffffffffffffffffffffff168152602001908152602001600020549050919050565b6000604051905090565b600080fd5b600080fd5b600073ffffffffffffffffffffffffffffffffffffffff82169050919050565b6000610e4382610e18565b9050919050565b610e5381610e38565b8114610e5e57600080fd5b50565b600081359050610e7081610e4a565b92915050565b600060208284031215610e8c57610e8b610e0e565b5b6000610e9a84828501610e61565b91505092915050565b6000819050919050565b610eb681610ea3565b82525050565b6000602082019050610ed16000830184610ead565b92915050565b610ee081610ea3565b8114610eeb57600080fd5b50565b600081359050610efd81610ed7565b92915050565b600060208284031215610f1957610f18610e0e565b5b6000610f2784828501610eee565b91505092915050565b610f3981610e38565b82525050565b600081519050919050565b600082825260208201905092915050565b60005b83811015610f79578082015181840152602081019050610f5e565b60008484015250505050565b6000601f19601f8301169050919050565b6000610fa182610f3f565b610fab8185610f4a565b9350610fbb818560208601610f5b565b610fc481610f85565b840191505092915050565b6000608082019050610fe46000830187610f30565b610ff16020830186610ead565b81810360408301526110038185610f96565b90506110126060830184610ead565b95945050505050565b60006020820190506110306000830184610f30565b92915050565b600081519050919050565b600082825260208201905092915050565b6000819050602082019050919050565b61106b81610e38565b82525050565b600061107d8383611062565b60208301905092915050565b6000602082019050919050565b60006110a182611036565b6110ab8185611041565b93506110b683611052565b8060005b838110156110e75781516110ce8882611071565b97506110d983611089565b9250506001810190506110ba565b5085935050505092915050565b600081519050919050565b600082825260208201905092915050565b6000819050602082019050919050565b61112981610ea3565b82525050565b600061113b8383611120565b60208301905092915050565b6000602082019050919050565b600061115f826110f4565b61116981856110ff565b935061117483611110565b8060005b838110156111a557815161118c888261112f565b975061119783611147565b925050600181019050611178565b5085935050505092915050565b600081519050919050565b600082825260208201905092915050565b6000819050602082019050919050565b600082825260208201905092915050565b60006111fa82610f3f565b61120481856111de565b9350611214818560208601610f5b565b61121d81610f85565b840191505092915050565b600061123483836111ef565b905092915050565b6000602082019050919050565b6000611254826111b2565b61125e81856111bd565b935083602082028501611270856111ce565b8060005b858110156112ac578484038952815161128d8582611228565b94506112988361123c565b925060208a01995050600181019050611274565b50829750879550505050505092915050565b600060808201905081810360008301526112d88187611096565b905081810360208301526112ec8186611154565b905081810360408301526113008185611249565b905081810360608301526113148184611154565b905095945050505050565b600080fd5b600080fd5b7f4e487b7100000000000000000000000000000000000000000000000000000000600052604160045260246000fd5b61136182610f85565b810181811067ffffffffffffffff821117156113805761137f611329565b5b80604052505050565b6000611393610e04565b905061139f8282611358565b919050565b600067ffffffffffffffff8211156113bf576113be611329565b5b6113c882610f85565b9050602081019050919050565b82818337600083830152505050565b60006113f76113f2846113a4565b611389565b90508281526020810184848401111561141357611412611324565b5b61141e8482856113d5565b509392505050565b600082601f83011261143b5761143a61131f565b5b813561144b8482602086016113e4565b91505092915050565b6000806040838503121561146b5761146a610e0e565b5b600061147985828601610eee565b925050602083013567ffffffffffffffff81111561149a57611499610e13565b5b6114a685828601611426565b9150509250929050565b7f496e646578206f7574206f6620626f756e647300000000000000000000000000600082015250565b60006114e6601383610f4a565b91506114f1826114b0565b602082019050919050565b60006020820190508181036000830152611515816114d9565b9050919050565b7f4e487b7100000000000000000000000000000000000000000000000000000000600052603260045260246000fd5b7f4e487b7100000000000000000000000000000000000000000000000000000000600052602260045260246000fd5b6000600282049050600182168061159257607f821691505b6020821081036115a5576115a461154b565b5b50919050565b7f4f6e6c79206f776e65722063616e206578656375746520746869730000000000600082015250565b60006115e1601b83610f4a565b91506115ec826115ab565b602082019050919050565b60006020820190508181036000830152611610816115d4565b9050919050565b7f4e487b7100000000000000000000000000000000000000000000000000000000600052601160045260246000fd5b600061165182610ea3565b91507fffffffffffffffffffffffffffffffffffffffffffffffffffffffffffffffff820361168357611682611617565b5b600182019050919050565b7f496e73756666696369656e742062616c616e6365000000000000000000000000600082015250565b60006116c4601483610f4a565b91506116cf8261168e565b602082019050919050565b600060208201905081810360008301526116f3816116b7565b9050919050565b600061170582610ea3565b915061171083610ea3565b925082820390508181111561172857611727611617565b5b92915050565b60008190508160005260206000209050919050565b60006020601f8301049050919050565b600082821b905092915050565b6000600883026117907fffffffffffffffffffffffffffffffffffffffffffffffffffffffffffffffff82611753565b61179a8683611753565b95508019841693508086168417925050509392505050565b6000819050919050565b60006117d76117d26117cd84610ea3565b6117b2565b610ea3565b9050919050565b6000819050919050565b6117f1836117bc565b6118056117fd826117de565b848454611760565b825550505050565b600090565b61181a61180d565b6118258184846117e8565b505050565b5b818110156118495761183e600082611812565b60018101905061182b565b5050565b601f82111561188e5761185f8161172e565b61186884611743565b81016020851015611877578190505b61188b61188385611743565b83018261182a565b50505b505050565b600082821c905092915050565b60006118b160001984600802611893565b1980831691505092915050565b60006118ca83836118a0565b9150826002028217905092915050565b6118e382610f3f565b67ffffffffffffffff8111156118fc576118fb611329565b5b611906825461157a565b61191182828561184d565b600060209050601f8311600181146119445760008415611932578287015190505b61193c85826118be565b8655506119a4565b601f1984166119528661172e565b60005b8281101561197a57848901518255600182019150602085019450602081019050611955565b868310156119975784890151611993601f8916826118a0565b8355505b6001600288020188555050505b505050505050565b60006060820190506119c16000830186610ead565b81810360208301526119d38185610f96565b90506119e26040830184610ead565b949350505050565b7f4465706f7369742073686f756c642062652067726561746572207468616e207a60008201527f65726f0000000000000000000000000000000000000000000000000000000000602082015250565b6000611a46602383610f4a565b9150611a51826119ea565b604082019050919050565b60006020820190508181036000830152611a7581611a39565b9050919050565b6000611a8782610ea3565b9150611a9283610ea3565b9250828201905080821115611aaa57611aa9611617565b5b9291505056fea2646970667358221220c0f22cff139e6bb8d7e47432b58e8a027e8b69ccf9c632ac5e1edbe097e5fd2d64736f6c63430008130033",
  "immutableReferences": {},
  "source": "// SPDX-License-Identifier: MIT\r\n\r\npragma solidity ^0.8.19;\r\n\r\ncontract ExpenseManagerContract{\r\n\r\n    address public owner;\r\n\r\n    struct Transaction{\r\n        address user;\r\n        uint amount;\r\n        string reason;\r\n        uint timestamp;\r\n    }\r\n\r\n    Transaction[] public transactions;\r\n\r\n    constructor(){\r\n        owner = msg.sender;\r\n    }\r\n\r\n    modifier onlyOwner(){\r\n        require(msg.sender == owner , \"Only owner can execute this\");\r\n        _;\r\n    }\r\n\r\n    mapping(address => uint) public balances;\r\n\r\n    event Deposit(address indexed _from, uint _amount , string _reason, uint _timestamp);\r\n    event Withdraw(address indexed _to, uint _amount , string _reason, uint _timestamp);\r\n\r\n    function deposit(uint _amount, string memory _reason) public payable {\r\n        require(_amount>0, \"Deposit should be greater than zero\");\r\n        balances[msg.sender] += _amount;\r\n        transactions.push(Transaction(msg.sender, _amount,_reason, block.timestamp));\r\n        emit Deposit( msg.sender,_amount,_reason,block.timestamp);\r\n    }\r\n\r\n    function withdraw(uint _amount, string memory _reason) public {\r\n    require(balances[msg.sender] >= _amount , \"Insufficient balance\");\r\n    balances[msg.sender] -= _amount;\r\n    transactions.push(Transaction(msg.sender,_amount,_reason,block.timestamp));\r\n    payable(msg.sender).transfer(_amount);\r\n    emit Withdraw (msg.sender,_amount,_reason,block.timestamp);\r\n    }\r\n\r\n    function getBalance(address _account) public view returns (uint) {\r\n        return balances[_account];\r\n    }\r\n\r\n    function getTranscationsCount(uint ) public view returns (uint ) {\r\n        return transactions.length;\r\n    }\r\n\r\n    function getTransaction(uint _index) public view returns (address,uint, string memory,uint){\r\n        require(_index<transactions.length,\"Index out of bounds\");\r\n        Transaction memory transaction = transactions[_index];\r\n        return (transaction.user,transaction.amount,transaction.reason,transaction.timestamp);\r\n    }\r\n\r\n    function getAllTransaction() public view returns (address[] memory , uint[] memory ,  string[] memory , uint[] memory){\r\n        address[] memory users = new address [](transactions.length);\r\n        uint[] memory amounts = new uint[](transactions.length);\r\n        string[] memory reasons = new string[](transactions.length);\r\n        uint[] memory timestamps =  new uint[](transactions.length);\r\n\r\n        for(uint i=0; i<transactions.length ;i++){\r\n            users[i] = transactions[i].user;\r\n            amounts[i] = transactions[i].amount;\r\n            reasons[i]= transactions[i].reason;\r\n            timestamps[i]= transactions[i].timestamp;\r\n        }\r\n\r\n        return (users, amounts, reasons, timestamps);\r\n\r\n\r\n    }\r\n    \r\n    // if a owner dies\r\n    function changeOwner(address _newOwner) public onlyOwner {\r\n        owner = _newOwner;\r\n    }\r\n\r\n\r\n}",
  "sourcePath": "C:\\Users\\Thanush\\OneDrive\\\\blockchain2\\contracts\\ExpenseManagerContract.sol",
  "compiler": {
    "name": "solc",
    "version": "0.8.19+commit.7dd6d404.Emscripten.clang"
  },
  "schemaVersion": "3.4.16",
  "updatedAt": "2024-07-27T07:24:31.425Z",
  "devdoc": {
    "kind": "dev",
    "methods": {},
    "version": 1
  },
  "userdoc": {
    "kind": "user",
    "methods": {},
    "version": 1
  }
}